:100000000C9430000C944D000C944D000C944D0059
:100010000C944D000C944D000C944D000C944D002C
:100020000C944D000C944D000C944D000C944D001C
:100030000C944D000C944D000C944D000C944D000C
:100040000C944D000C944D000C944D000C944D00FC
:100050000C944D006364696E6F70737578585B0023
:1000600011241FBECFE5D8E0DEBFCDBF14E0A0E66F
:10007000B0E0E6EDF6E102C005900D92A63AB107B8
:10008000D9F714E0A6EAB4E001C01D92A33EB1077F
:10009000E1F70E9426010C94690B0C9400001ABA37
:1000A0008FEF8BBB81B3837B81BB82B38C6482BBBC
:1000B0000895869BFECF8699FECF80E0839BFECF7E
:1000C0008399FECF8F5F8835C9F7839BFECF80E091
:1000D000829BFECF8299FECF8F5F8834C9F780E084
:1000E00090E020E0829BFECF39B3830F911D2F5FFC
:1000F0002530C1F765E070E00E94A504862F0895C1
:100100001F93CF93DF93182FC0E6D0E01DC000D01F
:1001100000D0EDB7FEB73196ADB7BEB71296DC93FF
:10012000CE931197128313820E9411058FEF93EDE6
:10013000A0E381509040A040E1F700C000001150C2
:100140000F900F900F900F90112309F78AE090E025
:100150000E942605DF91CF911F9108950F931F9361
:10016000CF93DF9386E690E00E942D0585E00E9404
:1001700080000E945900C82FD0E000D000D08CEA47
:1001800090E0EDB7FEB792838183D483C3830E944E
:1001900011050F900F900F900F9086ED90E00E9448
:1001A0002D0585E00E9480000E945900082F10E074
:1001B00000D000D08CE191E0EDB7FEB7928381834F
:1001C000148303830E941105C00FD11FD595C795D5
:1001D000C093A6040F900F900F900F908C2FDF917B
:1001E000CF911F910F9108951F930E945900182FCE
:1001F00000D000D0EDB7FEB7319626E431E0ADB7C0
:10020000BEB712963C932E931197828313820E945D
:1002100011059091A6040F900F900F900F909923C5
:1002200029F081E0911718F080E001C083E01F9170
:10023000089589E360E40E94660384E160E20E941D
:10024000660381E168E00E94660308952F923F9261
:100250004F925F926F927F928F929F92AF92BF92D6
:10026000CF92DF92EF92FF920F931F93DF93CF9382
:10027000CDB7DEB7EE970FB6F894DEBF0FBECDBF99
:100280000E9434040E9481020E9418030E941901F6
:100290000E944F004DE0C42ED12CCC0EDD1E39E55E
:1002A000A32E31E0B32E8E010B5F1F4F4E01089439
:1002B000811C911C23E0622E712C6C0E7D1E9FEF21
:1002C000492E91E0592E8DEC282E81E0382E1D828A
:1002D0001A8219821C821B824091DD045091DE0437
:1002E000C60162E370E00E94DD04009781F32DB740
:1002F0003EB72A5030400FB6F8943EBF0FBE2DBF18
:10030000EDB7FEB73196ADB7BEB71296DC92CE927E
:100310001197B382A28215830483978286827186A5
:1003200060860E9462057801EDB7FEB73A960FB677
:10033000F894FEBF0FBEEDBF06C090E00E94CC0453
:10034000D7018D937D01F70180818823B1F7C80122
:1003500062E671E00E94D404009729F489819A81B1
:100360000E944E04B4CFC80166E671E00E94D40436
:10037000009731F489819A816B810E947004A7CF24
:10038000C8016AE671E00E94D404009729F48981CB
:100390009A810E94AC020BC0C80160E771E00E9424
:1003A000D404009739F489819A810E94C9028EE6AB
:1003B00091E094C0C80165E771E00E94D404009701
:1003C00011F5E980FA808E2D0E941B0300D000D029
:1003D00000D0EDB7FEB731962EE731E0ADB7BEB72E
:1003E00012963C932E931197E282F38284831582B6
:1003F0000E9411058DB79EB706960FB6F8949EBF62
:100400000FBE8DBF64CFC8016EEA71E00E94D404B4
:10041000009741F589816B810E94660387EB91E02B
:100420000E942D05E980FA808E2D0E941B0300D0CA
:1004300000D000D0EDB7FEB73196ADB7BEB712967B
:100440003C922E921197E282F382848315820E945D
:100450001105EDB7FEB736960FB6F894FEBF0FBE86
:10046000EDBF35CFC80168EF71E00E94D40400975A
:10047000B1F40E94AE0000D000D0EDB7FEB73196C7
:10048000ADB7BEB712965C924E92119782831382DB
:100490000E9411050F900F900F900F9018CFC80178
:1004A00069E272E00E94D4040097B1F480E392E024
:1004B0000E942D0585E00E9480000E94F4008823A0
:1004C00019F482E592E00AC0813019F48DE792E0D8
:1004D00005C088EA92E002C080EE92E00E942D05FD
:1004E000F6CE46EF5FEF849F9001859F300D949F7D
:1004F000300D112428543B4DC901089580E381BB80
:10050000089580EF8FBD82E18EBD80E197E297BDB7
:1005100086BD4091F9025091FA0226EF3FEF429FCB
:10052000C001439F900D529F900D112488549B4D04
:100530009BBD8ABD4091FB025091FC02429FC001CD
:10054000439F900D529F900D112488549B4D99BD4F
:1005500088BD80E381BB0895853B91051CF497FD20
:1005600004C005C084EB90E002C080E090E090936E
:10057000FA028093F90246EF5FEF849F9001859F16
:10058000300D949F300D112428543B4D3BBD2ABDA6
:1005900008958B38910524F48230910524F005C02C
:1005A0008AE890E002C082E090E09093FC028093A1
:1005B000FB0246EF5FEF849F9001859F300D949F73
:1005C000300D112428543B4D39BD28BD089580912C
:1005D000F9029091FA0208952091F9023091FA02FD
:1005E000280F391F3093FA022093F902C9010E94A3
:1005F000AC0208958091FB029091FC020895209135
:10060000FB023091FC02280F391F3093FC0220932B
:10061000FB02C9010E94C9020895982F946896BFF1
:10062000803119F006B607FEFDCF81B1887F0895AD
:1006300082E180B908951F93182F80E20E940D0374
:10064000883021F08DEF92E00E942D0580EC83B977
:1006500080E00E940D03883121F081E193E00E9447
:100660002D0513B980E00E940D03883221F08DE33F
:1006700093E00E942D0580E10E940D0385E38A9599
:10068000F1F7000080E20E940D03883021F087E638
:1006900093E00E942D0581EC83B980E00E940D0358
:1006A000803421F084E893E00E942D0580E00E94D0
:1006B0000D03883521F082EA93E00E942D0513B1E5
:1006C00080E10E940D03812F1F9108950F931F93C6
:1006D000182F062F80E20E940D03883021F085EC50
:1006E00093E00E942D0580EC83B980E00E940D0309
:1006F0008831A1F021B100D000D04AED53E0EDB730
:10070000FEB75283418330E0287F307034832383E7
:100710000E9411050F900F900F900F9013B980E079
:100720000E940D038832A1F081B100D000D02DE0ED
:1007300034E0EDB7FEB73283218390E0887F90707C
:10074000948383830E9411050F900F900F900F9058
:1007500003B980E00E940D03883221F084E394E025
:100760000E942D0580E10E940D031F910F910895B5
:1007700001C08DE05D9BFECF8CB98A30D1F3089526
:100780008091D9049091DA04009709F05DC087EA5E
:1007900094E09093DC048093DB045F9BFECF8CB1EC
:1007A0008D30C9F4E091DB04F091DC048AE08083B1
:1007B0008091DB049091DC0401969093DC0480939B
:1007C000DB048AE00E94B80387EA94E09093DA049D
:1007D0008093D90439C0982F90529F35C0F4E0918E
:1007E000DB04F091DC0424E0E73DF20711F487E03C
:1007F0000BC080832091DB043091DC042F5F3F4FDE
:100800003093DC042093DB040E94B803C6CF883009
:1008100011F08F3711F68091DB049091DC0424E015
:10082000873A920709F008F4B8CF88E00E94B8032D
:1008300080E20E94B80388E00E94B8038091DB0444
:100840009091DC040197A5CFE091D904F091DA04EE
:100850008191F093DA04E093D9048A3021F4109264
:10086000DA041092D904089583E389B91BB888E1AA
:100870008AB986E880BD1092DA041092D9041092E9
:10088000DC041092DB0488E994E09093DE0480930A
:10089000DD049093E0048093DF0408951F93FC012E
:1008A000108100D000D000D0EDB7FEB7319621E521
:1008B00034E0ADB7BEB712963C932E931197828366
:1008C0009383148315820E9411058DB79EB70696F7
:1008D0000FB6F8949EBF0FBE8DBF812F1F91089554
:1008E000FC01608320812617F1F4408100D000D004
:1008F00000D0EDB7FEB731962BE634E0ADB7BEB70A
:1009000012963C932E93119742831382848395838E
:100910000E941105EDB7FEB736960FB6F894FEBFEC
:100920000FBEEDBF0DC000D087E894E0ADB7BEB7F5
:1009300012969C938E9311970E9411050F900F9021
:100940008AE090E00E942605089597FB092E07266D
:100950000AD077FD04D00CD006D000201AF4709590
:1009600061957F4F0895F6F7909581959F4F089573
:10097000AA1BBB1B51E107C0AA1FBB1FA617B707C5
:1009800010F0A61BB70B881F991F5A95A9F78095E1
:100990009095BC01CD0108959111089581568A5119
:1009A00008F4805285580895FB01DC018D91019077
:1009B00080190110D9F3990B0895A0E0B0E0E3EE9F
:1009C000F4E00C943C0BEC016A01FA01838180FF96
:1009D0001FC016161706E4F47B010894E108F1081D
:1009E0008E0110C0C6010E94480AFFEF8F3F9F078B
:1009F00079F0F80181938F018A30910531F00894E4
:100A0000E108F108E114F10469F7F801108202C06D
:100A1000C0E0D0E07E01CE01CDB7DEB7E8E00C94B7
:100A2000580BA0E0B0E0E7E1F5E00C94420BFE01CA
:100A30003596619171918091DF049091E004AF014E
:100A40000E947C052096E2E00C945E0B6091DF042E
:100A50007091E0040E948A0A0895EF92FF920F932A
:100A60001F93CF93DF938C01E091DF04F091E004BA
:100A7000838181FF1FC0C0E0D0E00AC0DB0118966F
:100A8000ED91FC9119970995009711F0CFEFDFEFE9
:100A9000F80181918F016091DF047091E004882357
:100AA00069F7DB011896ED91FC9119978AE0099599
:100AB000009711F0CFEFDFEFCE01CDB7DEB7E6E064
:100AC0000C945A0BAEE0B0E0E8E6F5E00C94420B73
:100AD00085E08C838B899C899A8389839E01295E1A
:100AE0003F4FCE0101966D897E89A9010E94F808C9
:100AF0002E96E2E00C945E0BACE0B0E0E2E8F5E0AC
:100B00000C94320B6C011B018A01FC0117821682C6
:100B1000838181FFD1C12E010894411C511CF60133
:100B20009381F10193FD859193FF81911F018823AA
:100B300009F4BEC1853239F493FD859193FF81910B
:100B40001F01853229F490E0B6010E948A0AE7CF9E
:100B5000EE24FF2420E02032B0F48B3269F08C3296
:100B600028F4803251F0833271F40BC08D3239F0A9
:100B7000803349F421602CC02260246029C02860A1
:100B800027C0206125C027FD2CC0382F30533A30B4
:100B900098F426FF08C08E2D880FE82EEE0CEE0C80
:100BA000E80EE30E15C08F2D880FF82EFF0CFF0CFA
:100BB000F80EF30E20620CC08E3221F426FD78C1AF
:100BC000206406C08C3611F4206802C0883649F4CF
:100BD000F10193FD859193FF81911F01882309F015
:100BE000BACF982F9554933018F09052933028F440
:100BF0000C5F1F4FFFE3F9830DC0833631F083375D
:100C000071F0833509F060C022C0F80180818983CA
:100C10000E5F1F4F420171E0A72EB12C16C062E09B
:100C2000662E712C600E711EF8018080918026FF67
:100C300003C06E2D70E002C06FEF7FEFC4012C8700
:100C40000E943D0A5C0183012C852F7717C052E07A
:100C5000652E712C600E711EF8018080918026FF38
:100C600003C06E2D70E002C06FEF7FEFC4012C87D0
:100C70000E94320A5C012C852068830123FD20C07C
:100C800008C080E290E0B6012C870E948A0AFA949C
:100C90002C858F2D90E0A816B90698F311C0F401A9
:100CA00027FD859127FF81914F0190E0B6012C87A8
:100CB0000E948A0A2C85F110FA940894A108B108C0
:100CC000A114B10461F7F1C0843611F0893649F5F9
:100CD00027FF08C0F80160817181828193810C5FD8
:100CE0001F4F09C0F80160817181882777FD8095C9
:100CF000982F0E5F1F4F4FE6B42EB22297FF09C008
:100D000090958095709561957F4F8F4F9F4FF0E83C
:100D1000BF2AA2012AE030E00E94D10A782E74187E
:100D200045C0853731F43FEEB32EB2222AE030E0E1
:100D300025C099EFB92EB2228F36C1F0803720F44A
:100D4000883509F0B5C00DC0803721F0883709F02B
:100D5000AFC002C020E1B22AB4FE0BC084E0B82AC2
:100D600008C0B4FE09C0E6E0BE2A06C028E030E0B4
:100D700005C020E130E002C020E132E0B7FE08C04B
:100D8000F80160817181828193810C5F1F4F07C0E0
:100D9000F8016081718180E090E00E5F1F4FA20139
:100DA0000E94D10A782E7418FFE7BF22B6FE0BC04E
:100DB0002EEFB2227E1438F4B4FE07C0B2FC05C098
:100DC0008FEEB82202C0A72C01C0AE2C8B2D90E074
:100DD000B4FE0DC0FE01E70DF11D2081203319F492
:100DE000E9EEBE2209C0A394B2FE06C004C0867814
:100DF0009070009709F0A3948B2C9924B3FC14C035
:100E0000B0FE0FC0AF1428F4E72CEF0CEA18AF2C9B
:100E100008C0E72C06C080E290E0B6010E948A0A72
:100E2000A394AF14C0F304C0AF1410F4FA1801C0B7
:100E3000FF2484FE0FC080E390E0B6010E948A0A7E
:100E400082FE1FC081FE03C088E590E010C088E7E5
:100E500090E00DC0C40186789070009791F081FCFD
:100E600002C080E201C08BE2B7FC8DE290E0B601E7
:100E70000E948A0A06C080E390E0B6010E948A0AB6
:100E8000EA947E14C0F37A94F201E70DF11D80819B
:100E900090E0B6010E948A0A7720A9F706C080E296
:100EA00090E0B6010E948A0AFA94FF20C1F737CE7B
:100EB000F6012681378102C02FEF3FEFC9012C9642
:100EC000E2E10C944E0B20FD09C0FC0123FD05C09E
:100ED00022FF02C073836283518340830895EF929F
:100EE000FF920F931F9344FD10C046FD10C0DB011D
:100EF000FC01AA0FBB1FEE1FFF1F1094D1F76A0F52
:100F00007B1F8E1F9F1F31E003C033E001C034E020
:100F1000660F771F881F991F3150D1F77B018C0115
:100F2000E20EF11C011D111DA8019701B701CA01B4
:100F30001F910F91FF90EF900895EF92FF920F9302
:100F40001F93CF93DF938C01C8010E94480AEC01E4
:100F500097FD09C00E941F0A0097B1F77E01CE01DC
:100F6000B8010E94B60ACE01CDB7DEB7E6E00C9418
:100F70005A0B8F929F92AF92BF92DF92EF92FF92A5
:100F80000F931F93DF93CF930F92CDB7DEB74C0132
:100F9000D62E5A01122F0E94480A8B3219F08D3238
:100FA00049F41068DA9409F46CC0C4010E94480A3C
:100FB00097FD67C0312F3D7F232F2073F1F48033DD
:100FC000E1F4DA9409F448C0C40139830E94480A64
:100FD000398197FD41C03260883711F0883559F466
:100FE0003064DA94C9F1C40139830E94480A398116
:100FF00097FF03C031C036FF3061EE24FF24870124
:10100000282F2053283090F034FD09C02A3070F08A
:1010100036FF05C02F7D422F4151463030F0B401DC
:1010200039830E94B60A398114C02750C801B7011C
:10103000432F39830E946F077B018C013981326015
:10104000DA9469F0C40139830E94480A398197FF14
:10105000D7CF31FD04C015C0EE24FF24870137FF30
:1010600008C010950095F094E094E11CF11C011D5E
:10107000111DC501B801A701232F0E94630781E05C
:1010800001C080E00F90CF91DF911F910F91FF90F1
:10109000EF90DF90BF90AF909F908F900895A1E266
:1010A000B0E0E5E5F8E00C94360B6C018A017901BB
:1010B0009E012F5F3F4F80E2F90111928A95E9F777
:1010C000F601838080E090E0BB24992470E0A1E0E9
:1010D000B0E0F70183FCA59083FEA1907F01AA20D8
:1010E00009F47FC0FA2DFE3511F4009751F1472F16
:1010F00050E04817590744F44A2D4D3551F14D320F
:1011000019F4992001F103C0992009F4BA2C4A2D51
:10111000469546954695F901E40FF11D4A2D477015
:101120003D0102C0660C771C4A95E2F79080962834
:101130009082AB1459F0AB1410F4A394E8CFAA94A6
:10114000E6CF71E004C09924939401C099240196DC
:10115000C0CF992019F08E8180628E83772351F061
:10116000CE018196FE013196208120952193E817CA
:10117000F907D1F7BB24B3944E010894811C911C4C
:1011800001C0BB24C60169A30E94480A69A197FD5A
:1011900020C0282F269526952695F401E20FF11DF3
:1011A000208130E0AC014770507002C03595279522
:1011B0004A95E2F720FD04C0B6010E94B60A09C0B4
:1011C0000115110519F0F80181938F016150C9F6DD
:1011D00002C0BB2031F40115110529F0F80110827D
:1011E00002C0EE24FF24C701A196EEE00C94520B3E
:1011F0004F925F926F927F929F92AF92BF92CF92E7
:10120000DF92EF92FF920F931F93DF93CF930F9292
:10121000CDB7DEB77C016B013A01FC011782168263
:1012200000E0E9C0812F90E00E941F0A009721F0A2
:10123000C7010E949D07DFC0153241F4F601A3FCEF
:101240003591A3FE31916F01353261F4C7010E94DF
:10125000480A97FDDCC0181709F4CDC0B7010E94F9
:10126000B60AD7C03A3239F4A3FC3591A3FE3191C6
:101270006F0111E001C010E099240FC01260692DC8
:1012800070E080E090E040E20E946F07962EF60149
:10129000A3FC3591A3FE31916F01232F20532A30F7
:1012A00068F311FF03C0992019F4B3C099249A94EC
:1012B000383619F03C3689F409C0F601A3FC3591A3
:1012C000A3FE31916F01383641F418601460F601C5
:1012D000A3FC3591A3FE31916F01332309F499C02A
:1012E00084E590E0632F70E039830E94270A3981FA
:1012F000009709F48EC0812F10FD08C0F3014080D3
:10130000518042E050E0640E751E02C04424552412
:101310003E3651F4F7014681578160E070E0C2012A
:10132000212F0E94630767C0333691F481FD02C00C
:1013300099249394C7010E94480A97FD68C04114FC
:10134000510419F0F20181932F019A9499F751C039
:101350003B3559F4C701692DA20196010E944F083F
:101360006C01009709F045C03FC0C70139830E9456
:101370009D07398197FD4BC03F3659F1303728F42E
:10138000343629F1393639F527C0333719F0353776
:1013900011F51DC0C7010E94480A5C0197FD11C0EC
:1013A0000E941F0A009729F0C501B7010E94B60AE2
:1013B00008C04114510419F0F201A1922F019A942E
:1013C00049F741145104A9F0F201108212C01062D1
:1013D00003C0106101C01064C701692DA201212F53
:1013E0000E94B907882329F4F7018381807379F477
:1013F00010C010FF0F5FF701A380F601A3FC159149
:10140000A3FE11916F01112309F00CCF02C000233C
:1014100011F010E002C00FEF1FEFC8010F90CF9145
:10142000DF911F910F91FF90EF90DF90CF90BF90D1
:10143000AF909F907F906F905F904F900895911123
:101440000EC1803219F089508550D0F70895FC0103
:101450000590061621F00020D9F7C00108953197B4
:10146000CF010895FC010590615070400110D8F73C
:10147000809590958E0F9F1F0895FC0161507040DC
:1014800001900110D8F7809590958E0F9F1F0895B9
:10149000CF93DF93EC013B8130FF36C036FF09C0AC
:1014A0003F7B3B838E819F8101969F838E832A8120
:1014B00029C032FF0FC0E881F9818081992787FD1B
:1014C0009095009719F430623B831EC03196F983E2
:1014D000E88311C0EA85FB85CE01099597FF0BC013
:1014E0002B813FEF8F3F930711F480E101C080E231
:1014F000822B8B8309C02E813F812F5F3F4F3F831B
:101500002E83282F30E002C02FEF3FEFC901DF917B
:10151000CF9108950F931F93CF93DF938C01EB012D
:101520008B8181FF1BC082FF0DC02E813F818C818A
:101530009D812817390764F4E881F9810193F983C3
:10154000E88306C0E885F985802F0995009731F476
:101550008E819F8101969F838E8302C00FEF1FEFC4
:10156000C801DF91CF911F910F910895FB01238155
:1015700020FF13C026FD11C03FEF8F3F930769F096
:10158000828320642F7D2383268137812150304040
:1015900037832683282F30E002C02FEF3FEFC901A9
:1015A0000895FA01AA27283051F1203181F1E894F9
:1015B0006F936E7F6E5F7F4F8F4F9F4FAF4FB1E046
:1015C0003ED0B4E03CD0670F781F891F9A1FA11D41
:1015D000680F791F8A1F911DA11D6A0F711D811D42
:1015E000911DA11D20D009F468943F912AE0269F07
:1015F00011243019305D3193DEF6CF010895462F66
:101600004770405D4193B3E00FD0C9F7F6CF462F46
:101610004F70405D4A3318F0495D31FD40524193AF
:1016200002D0A9F7EACFB4E0A6959795879577956C
:101630006795BA95C9F700976105710508959B01F3
:10164000AC010A2E06945795479537952795BA957C
:10165000C9F7620F731F841F951FA01D0895992756
:10166000882708952F923F924F925F926F927F92B8
:101670008F929F92AF92BF92CF92DF92EF92FF92A2
:101680000F931F93CF93DF93CDB7DEB7CA1BDB0B4E
:101690000FB6F894DEBF0FBECDBF09942A883988F3
:1016A00048885F846E847D848C849B84AA84B984FA
:1016B000C884DF80EE80FD800C811B81AA81B98106
:1016C000CE0FD11D0FB6F894DEBF0FBECDBFED011A
:0616D0000895F894FFCF1D
:1016D60025752E2E200041626F757420746F20636D
:1016E600616C69627261746520666F7220424C415A
:1016F600434B2E20506C61636520424C41434B2086
:10170600706170657220696E2066726F6E74206FEC
:10171600662063616D6572612E2E2E00424C414338
:101726004B206E6F772063616C69627261746564C9
:101736002E20424C41434B2076616C7565203D203E
:10174600307825580A0041626F757420746F2063E3
:10175600616C69627261746520666F7220574849D0
:1017660054452E20506C61636520574849544520E6
:10177600706170657220696E2066726F6E74206F7C
:10178600662063616D6572612E2E2E00574849549E
:1017960045206E6F772063616C696272617465645F
:1017A6002E2057484954452076616C7565203D20AA
:1017B600307825580A004974656D2056616C756548
:1017C600203D20307825580A0025732025692025DC
:1017D600690052494F0057494F0050414E000A00D8
:1017E60054494C5400524443414D524547004361CD
:1017F6006D657261205265676973746572203D205C
:1018060030782558202052656769737465722056B2
:10181600616C7565203D20307825580A0A005752BC
:1018260043414D52454700577269746520446F6EB7
:10183600652C20566572696679696E670043616D2D
:10184600657261205265676973746572203D203048
:10185600782558204E6F7720436F6E7461696E73DA
:1018660020307825580A0A0043414C43414D004335
:10187600616C6962726174696F6E20436F6D706C22
:10188600657465643A205468726573686F6C642089
:101896003D20307825580A0A0043414C56455200EF
:1018A600506C61636520506170657220496E2046F8
:1018B600726F6E74204F662043616D6572612E2EC5
:1018C6002E0049205370792057697468204D79207D
:1018D6004C6974746C652045796520536F6D657429
:1018E60068696E6720424C41434B2E0A00492053DB
:1018F60070792057697468204D79204C6974746C2E
:10190600652045796520536F6D657468696E67203B
:1019160057484954452E0A00556D6D6D2C204920B7
:101926004D75737420426520436F6C6F7220426C54
:10193600696E642C20506C656173652052756E204B
:1019460063616C63616D20506C656173652E0A007E
:101956004E6F2056616C69642046756E6374696FBC
:101966006E20466F756E640A005A005A0045727200
:101976006F72205374617274696E67205265616478
:10198600004572726F722053656E64696E672043FC
:10199600616D657261205772697465204164647275
:1019A60065737320666F72205265616400457272BA
:1019B6006F722053656E64696E672043616D657250
:1019C6006120526567204164647265737320666F97
:1019D600722052656164004572726F722053656EA3
:1019E60064696E672052657065617465642053741E
:1019F600617274004572726F722047657474696E05
:101A0600672043616D6572612052656164204143C0
:101A16004B004572726F722052656164696E672071
:101A260046726F6D2043616D65726120526567690C
:101A360073746572004572726F72205374617274AA
:101A4600696E67205772697465004572726F7220FD
:101A560053656E64696E672043616D6572612057D8
:101A660072697465204164647265737320666F726F
:101A760020577269746520307825580A00457272BD
:101A86006F722053656E64696E672052656769736D
:101A960074657220746F2043616D657261203078C1
:101AA60025580A004572726F722053656E64696E1E
:101AB60067204461746120746F2043616D657261B3
:101AC60000526567697374657220257520636F6EB1
:101AD6007461696E732025750A0A0056616C756516
:101AE600202575206E6F7720726573696465732093
:101AF600696E2025750A00536F6D657468696E6797
:101B0600204661696C656400000000030000000067
:061B1600B803C00300004B
:00000001FF
