:020000020000FC
:0200000030C00E
:02001C0089C099
:1000540010E000E00F9313951132E1F7089501E0E9
:100064000EBF009364000FEF0DBF0093650006E21E
:100074000F9301E00F9310E000E00F9313951132FA
:10008400E1F70EB7009364000DB70093650002E03A
:100094000EBF009366000FE70DBF0093670009E2EF
:1000A4000F9301E00F9310E000E00F9313951132CA
:1000B400E1F70EB7009366000DB70093670002E006
:1000C4000EBF009368000FEF0DBF009369000CE2B0
:1000D4000F9301E00F9310E000E00F93139511329A
:1000E400E1F70EB7009368000DB70093690001E0D3
:1000F4000EBF009362000FE70DBF0093630000E0A2
:1001040000936A000FEF04BB00E005BB04E00BBDE5
:1001140002EE0ABD09B7006109BF00E00DBD0CBDC8
:100124000EB50C600EBD78940C9423010F920FB69B
:100134000F921F922F923F924F925F926F927F92F3
:100144008F929F92AF92BF92CF92DF92EF92FF92E3
:100154000F931F932F933F934F935F936F937F93CB
:100164008F939F93AF93BF93CF93DF93EF93FF93BB
:1001740000916A00039500936A00003041F0013059
:1001840099F00230F1F0033049F10C942F010EB7CD
:10019400009368000DB700936900009162000EBFE0
:1001A400009163000DBF2AC00EB7009362000DB723
:1001B40000936300009164000EBF009165000DBFC1
:1001C4001DC00EB7009364000DB700936500009145
:1001D40066000EBF009167000DBF10C00EB70093FC
:1001E40066000DB700936700009168000EBF009190
:1001F40069000DBF0FEF00936A0000C0FF91EF91FB
:10020400DF91CF91BF91AF919F918F917F916F912A
:100214005F914F913F912F911F910F91FF90EF901C
:10022400DF90CF90BF90AF909F908F907F906F9012
:100234005F904F903F902F901F900F900FBE0F90A4
:10024400189500E005BBFDCF01E005BBFDCF02E042
:0C02540005BBFDCF03E005BBFDCFFFCFD5
:00000001FF
