:100000000C942A000C94EC020C9447000C944700CA
:100010000C9447000C9447000C9447000C94FD028C
:100020000C9447000C9447000C9447000C94470034
:100030000C9447000C9447000C9447000C94470024
:100040000C9447000C9447000C9447000C94470014
:100050000C94470011241FBECFE5D8E0DEBFCDBF12
:1000600011E0A0E6B0E0E8E2FCE002C005900D92ED
:10007000AA30B107D9F711E0AAE0B1E001C01D92A2
:10008000AF34B107E1F70E94B2010C9412060C9450
:1000900000001ABA3E9A86B1876886B90895369AE2
:1000A000349BFECF349A089584B1089585B10895A4
:1000B0008CB98A3019F48DE00E9458005D9BFECF08
:1000C0000895EF92FF920F931F93CF938091450174
:1000D00090914601009709F062C083E191E090930E
:1000E0004801809347017C0103E411E05F9BFECF50
:1000F000CCB1CD30C9F4E0914701F09148018AE0DC
:100100008083809147019091480101969093480126
:10011000809347018AE00E94580083E191E0909328
:100120004601809345013BC08C2F80528F35C0F42F
:10013000E0914701F0914801E017F10721F487E0D1
:100140000E9458000DC0C0838091470190914801E2
:10015000019690934801809347018C2F0E9458008C
:10016000C83011F0CF3711F68091470190914801C6
:10017000E816F90608F0BACF88E00E94580080E23D
:100180000E94580088E00E94580080914701909199
:10019000480101979093480180934701A7CFE091D0
:1001A0004501F09146018191F0934601E0934501AC
:1001B0008A3021F41092460110924501CF911F918F
:1001C0000F91FF90EF90089510BC87E689B91BB896
:1001D00088E98AB986E880BD1092460110924501EF
:1001E000109248011092470187EA90E090934A01EB
:1001F0008093490190934C0180934B010895CF93D4
:10020000E82FF92FC08100D000D000D0EDB7FEB7A5
:10021000319620E630E0ADB7BEB712963C932E93F0
:10022000119782839383C48315820E9441038DB703
:100230009EB706960FB6F8949EBF0FBE8DBF8C2F4B
:10024000CF910895E82FF92F608320812617F1F4CC
:10025000408100D000D000D0EDB7FEB731962AE73C
:1002600030E0ADB7BEB712963C932E931197428300
:100270001382848395830E944103EDB7FEB73696BF
:100280000FB6F894FEBF0FBEEDBF0DC000D086E9DB
:1002900090E0ADB7BEB712969C938E9311970E94D3
:1002A00041030F900F908AE090E00E94560308955A
:1002B000F89481E08093100180911101882381F0EE
:1002C00000D085EB90E0EDB7FEB7928381830E946A
:1002D00041030F900F9080E290E00E9456030FC000
:1002E00000D085EB90E0EDB7FEB7928381830E944A
:1002F00041030F900F9088E490E00E945603109203
:1003000010019091110181E0911180E08093110121
:1003100010921201789408951FBC82E89EE19BBD63
:100320008ABD8EB588608EBD8EB585608EBD89B75D
:10033000806189BF08958A9A929A85B7856085BF42
:100340008BB780648BBF0895813019F4959A949887
:100350000895882319F4949A9598089582B3806338
:1003600082BB089581B3806381BB80E00E94A401B9
:100370000E94E4000E949B010E948C010E9449009F
:1003800081E080930E0100D08DEB90E0ADB7BEB759
:1003900012969C938E9311970E94410386EC90E0F5
:1003A000EDB7FEB7928381830E9441038FEF93EDF7
:1003B000A0E381509040A040E1F700C00000789495
:1003C0000F900F900F2EFDEB8F2EF0E09F2EF02D53
:1003D0000F2EF0EE6F2EF0E07F2EF02D0F2EFAEEA6
:1003E000CF2EF0E0DF2EF02D0F2EF2EFAF2EF0E04B
:1003F000BF2EF02D0F2EF9EF4F2EF0E05F2EF02DD7
:100400000F2EF0E02F2EF1E03F2EF02D8091120103
:10041000882331F080911001882311F40E94580143
:1004200080910E01882309F467C080E00E94A40136
:1004300010920E010E944F000E945400C82F0E948B
:100440005600C6950C2F10E0C80180977C01F594EA
:10045000E79400D0ADB7BEB712969C928E921197DA
:100460000E94410300D000D0EDB7FEB73196ADB782
:10047000BEB712967C926E92119713830283E48228
:1004800015820E9441030F900F900F900F90EDB7CF
:10049000FEB7D282C1820E944103ADB7BEB71296A9
:1004A000BC92AE9211970E94410317BA86B3809313
:1004B0000A01EFE3FFE13197F1F700C000000F9070
:1004C0000F9081E00E94A4018FE39FE10197F1F773
:1004D00000C000008AE20E9458008E2D0E94580041
:1004E0008C2F0E945800AFE3BCE91197F1F700C0D0
:1004F000000080E00E94A40180910C01882309F48F
:1005000048C010920C018FEF91EEA4E08150904012
:10051000A040E1F700C00000829BFECF8FEF91EE7C
:10052000A4E081509040A040E1F700C0000080911D
:100530000D018823E1F48EB5887F8EBD00D0ADB764
:10054000BEB71296DC92CE9211970E94410385EFBE
:1005500090E0EDB7FEB7928381830E94410381E072
:1005600080930F0180930D010F900F9012C08EB5F4
:1005700085608EBD00D0ADB7BEB71296BC92AE926C
:1005800011970E94410310920F0110920D010F90DC
:100590000F9085B78F7885BFF89480910F018823DD
:1005A000C9F000D0EDB7FEB7528241820E944103EC
:1005B000ADB7BEB712963C922E9211970E9441039E
:1005C00085B7806885BF7894889585B78F7785BF14
:1005D0000F900F9078941ACF1F920F920FB60F9230
:1005E00011248F9381E080930C0180930E018F91F1
:1005F0000F900FBE0F901F9018951F920F920FB67D
:100600000F9211248F9380910B01803F50F48091C1
:100610000F01882331F080910B018F5F80930B01D4
:100620002AC080910B01803F60F080910F018823E8
:1006300041F010920B0110920F0181E080930E01A6
:100640001AC080910B018A3088F480910F018823B1
:1006500069F480910B018F5F80930B0180911001F1
:10066000882349F481E08093120105C010920B01A8
:1006700081E080930F018F910F900FBE0F901F901C
:100680001895A0E0B0E0E7E4F3E00C94EB05FE0180
:1006900035966191719180914B0190914C01AF0120
:1006A0000E945D032096E2E00C94070660914B01E6
:1006B00070914C010E9451050895ADE0B0E0E3E671
:1006C000F3E00C94DB053C017D876C875A01FC014B
:1006D00017821682838181FFC8C12E010894411CB4
:1006E000511CF3019381EC85FD8593FD859193FF6A
:1006F0008191FD87EC87882309F4B3C1853241F4E9
:1007000093FD859193FF8191FD87EC87853229F4D4
:1007100090E0B3010E945105E4CFFF24EE2410E0E5
:100720001032B0F48B3269F08C3228F4803251F000
:10073000833271F40BC08D3239F0803349F411608B
:100740002CC01260146029C0186027C0106125C039
:1007500017FD2EC0282F20532A3098F416FF08C00A
:100760008F2D880FF82EFF0CFF0CF80EF20E15C01F
:100770008E2D880FE82EEE0CEE0CE80EE20E1062C5
:100780000CC08E3221F416FD6CC1106406C08C368C
:1007900011F4106802C0883659F4EC85FD8593FD8C
:1007A000859193FF8191FD87EC87882309F0B8CF6D
:1007B000982F9554933018F09052933038F424E0E9
:1007C00030E0A20EB31E3FE339830FC0833631F011
:1007D000833781F0833509F05AC022C0F50180814A
:1007E000898322E030E0A20EB31E21E0C22ED12C7C
:1007F000420114C092E0292E312C2A0C3B1CF50139
:100800008080918016FF03C06F2D70E002C06FEFF3
:100810007FEFC4010E9446056C0151011F7715C08E
:1008200082E0282E312C2A0C3B1CF501808091801F
:1008300016FF03C06F2D70E002C06FEF7FEFC401A1
:100840000E943B056C011068510113FD1CC006C0DD
:1008500080E290E0B3010E945105EA948E2D90E071
:10086000C816D906A8F30FC0F40117FD859117FF2C
:1008700081914F0190E0B3010E945105E110EA948B
:100880000894C108D108C114D10471F7E7C08436B7
:1008900011F0893651F5F50117FF07C0808191816C
:1008A000A281B38124E030E008C080819181AA2731
:1008B00097FDA095BA2F22E030E0A20EB31E012FC3
:1008C0000F76B7FF08C0B095A095909581959F4F82
:1008D000AF4FBF4F0068BC01CD01A2012AE030E05C
:1008E0000E947D05D82ED4183FC0853721F41F7E85
:1008F0002AE030E020C0197F8F36A9F0803720F43D
:10090000883509F0AEC00BC0803721F0883709F078
:10091000A8C001C0106114FF09C0146007C014FF13
:1009200008C0166006C028E030E005C020E130E0D5
:1009300002C020E132E0F50117FF07C0608171813C
:100940008281938144E050E006C06081718180E043
:1009500090E042E050E0A40EB51EA2010E947D0589
:10096000D82ED418012F0F7706FF09C00E7FDF1491
:1009700030F404FF06C002FD04C00F7E02C01D2D2E
:1009800001C01F2D802F90E004FF0CC0FE01ED0D73
:10099000F11D2081203311F4097E09C002FF06C039
:1009A0001E5F05C086789070009709F01F5F802E4B
:1009B000992403FD12C000FF0DC0FD2C1E1550F43C
:1009C000FE0CF11A1E2D06C080E290E0B3010E94D9
:1009D00051051F5F1E15C0F304C01E1510F4E11A67
:1009E00001C0EE2484FE0FC080E390E0B3010E94BA
:1009F000510582FE1FC081FE03C088E590E010C053
:100A000088E790E00DC0C40186789070009791F05F
:100A100081FC02C080E201C08BE207FD8DE290E024
:100A2000B3010E94510506C080E390E0B3010E942B
:100A30005105FA94DF14C0F3DA94F201ED0DF11DC3
:100A4000808190E0B3010E945105DD20A9F706C026
:100A500080E290E0B3010E945105EA94EE20C1F7D4
:100A600040CEF3018681978102C08FEF9FEF2D96D4
:100A7000E2E10C94F705FC01059061507040011013
:100A8000D8F7809590958E0F9F1F0895FC016150B7
:100A9000704001900110D8F7809590958E0F9F1FA0
:100AA00008950F931F93CF93DF938C01EB018B81FC
:100AB00081FF1BC082FF0DC02E813F818C819D81F3
:100AC0002817390764F4E881F9810193F983E883F1
:100AD00006C0E885F985802F0995009731F48E814D
:100AE0009F8101969F838E8302C00FEF1FEFC80185
:100AF000DF91CF911F910F910895FA01AA27283015
:100B000051F1203181F1E8946F936E7F6E5F7F4FDA
:100B10008F4F9F4FAF4FB1E03ED0B4E03CD0670F56
:100B2000781F891F9A1FA11D680F791F8A1F911DA9
:100B3000A11D6A0F711D811D911DA11D20D009F4F9
:100B400068943F912AE0269F11243019305D31933B
:100B5000DEF6CF010895462F4770405D4193B3E024
:100B60000FD0C9F7F6CF462F4F70405D4A3318F0CB
:100B7000495D31FD4052419302D0A9F7EACFB4E07C
:100B8000A6959795879577956795BA95C9F7009734
:100B90006105710508959B01AC010A2E06945795D5
:100BA000479537952795BA95C9F7620F731F841F2C
:100BB000951FA01D08952F923F924F925F926F92C2
:100BC0007F928F929F92AF92BF92CF92DF92EF92DD
:100BD000FF920F931F93CF93DF93CDB7DEB7CA1B5E
:100BE000DB0B0FB6F894DEBF0FBECDBF09942A8889
:100BF000398848885F846E847D848C849B84AA8431
:100C0000B984C884DF80EE80FD800C811B81AA81BD
:100C1000B981CE0FD11D0FB6F894DEBF0FBECDBF88
:080C2000ED010895F894FFCFE7
:100C2800526567697374657220257520636F6E74E9
:100C380061696E732025750A0A0056616C75652016
:100C48002575206E6F7720726573696465732069F6
:100C58006E2025750A00536F6D657468696E67208C
:100C68004661696C656400000000030000000058DC
:100C780000610000001B5B313B333266001B5B32B6
:100C88004A201B5B4800434533323030205A4947DD
:100C980042454520312E300A57656C636F6D6500FB
:100CA800257520460925752043001B5B323B3130F2
:100CB80066004F4E004F4646001B5B323B306600D5
:0A0CC800534C454550494E470000CB
:00000001FF
