:100000000C942A000C946E000C94A2000C944700EF
:100010000C9447000C9447000C9447000C94D600B5
:100020000C9447000C9447000C9447000C94470034
:100030000C9447000C9447000C9447000C94470024
:100040000C9447000C9447000C9447000C94470014
:100050000C94470011241FBECFE5D8E0DEBFCDBF12
:1000600010E0A0E6B0E0E4E8F2E002C005900D92F6
:10007000A036B107D9F710E0A0E6B0E001C01D92AC
:10008000A536B107E1F70E9466000C9440010C947C
:10009000000081B38C6081BB82B38C6082BB85B76A
:1000A000856085BF8BB7806C8BBF08951FBC1EBC5D
:1000B0008BE29AE09BBD8ABD8EB588608EBD8EB501
:1000C00085608EBD89B7806189BF08950E9449000F
:1000D0000E94560083E087BB7894FFCF1F920F9257
:1000E0000FB60F9211248F939F93AF93BF938FEF0F
:1000F00099EFA0E081509040A040E1F700C00000DF
:100100009091630081E0911180E080936300809181
:100110006300882361F080916200882321F083E0EE
:100120008093640006C081E08093640002C0109256
:100130006400BF91AF919F918F910F900FBE0F9070
:100140001F9018951F920F920FB60F9211248F9344
:100150009F93AF93BF938FEF99EFA0E081509040B2
:10016000A040E1F700C000009091620081E0911191
:1001700080E08093620080916200882361F080912A
:100180006300882321F083E08093640006C082E04E
:100190008093640002C010926400BF91AF919F9160
:1001A0008F910F900FBE0F901F9018951F920F9276
:1001B0000FB60F9211248F939F93809161008F5FF0
:1001C0008093610080916400813011F1813030F0C2
:1001D0008230C1F1833009F04CC045C0809160008D
:1001E0008F5F80936000809161008C3030F01092BE
:1001F000610098B381E0892788BB809160008230DC
:10020000C0F11092600098B382E0892788BB31C0AA
:10021000809160008F5F80936000809161008C30DE
:1002200030F01092610098B382E0892788BB8091FA
:1002300060008230F0F01092600098B381E089276E
:1002400088BB17C01092600080916100863030F04A
:100250001092610098B381E0892788BB98B382E04F
:10026000892788BB06C0109261001092600083E06D
:1002700088BB9F918F910F900FBE0F901F90189584
:04028000F894FFCF20
:00000001FF
