:100000000C942A000C9447000C9447000C94470071
:100010000C9447000C9447000C9447000C94470044
:100020000C9447000C9447000C9447000C94470034
:100030000C9447000C9447000C9447000C94470024
:100040000C9447000C9447000C9447000C94470014
:100050000C94470011241FBECFE5D8E0DEBFCDBF12
:1000600010E0A0E6B0E0E2EEF8E002C005900D92EC
:10007000A237B107D9F710E0A2E7B0E001C01D92A6
:10008000AE3AB107E1F70E9449000C946F040C945A
:100090000000CF92DF92EF92FF920F931F93DF93B6
:1000A000CF93CDB7DEB7E2970FB6F894DEBF0FBEA1
:1000B000CDBF0E94920083E690E09093A9008093C8
:1000C000A8009093AB008093AA008E010F5F1F4F92
:1000D00080E6C82E80E0D82E4091A8005091A9005B
:1000E000C80162E370E00E9426010097A9F378013D
:1000F00006C090E00E941E01F70181937F01F70185
:1001000080818823B1F700D000D0EDB7FEB7D2824E
:10011000C182148303830E945A010F900F900F90A5
:100120000F90DACF83E389B91BB888E18AB986E8F2
:1001300080BD1092A5001092A4001092A70010920A
:10014000A600089501C08DE05D9BFECF8CB98A307A
:10015000D1F308958091A4009091A500009709F033
:100160005DC082E790E09093A7008093A6005F9B1C
:10017000FECF8CB18D30C9F4E091A600F091A700BC
:100180008AE080838091A6009091A70001969093C9
:10019000A7008093A6008AE00E94A20082E790E078
:1001A0009093A5008093A40039C0982F90529F355A
:1001B000C0F4E091A600F091A70020E0E23AF20737
:1001C00011F487E00BC080832091A6003091A70036
:1001D0002F5F3F4F3093A7002093A6000E94A200FC
:1001E000C6CF883011F08F3711F68091A60090911C
:1001F000A70020E08237920709F008F4B8CF88E022
:100200000E94A20080E20E94A20088E00E94A20058
:100210008091A6009091A7000197A5CFE091A4003E
:10022000F091A5008191F093A500E093A4008A309D
:1002300021F41092A5001092A40008959111089540
:1002400081568A5108F4805285580895A0E0B0E0A4
:10025000ECE2F1E00C944204EC016A01FA018381C2
:1002600080FF1FC016161706E4F47B010894E1080E
:10027000F1088E0110C0C6010E946C03FFEF8F3F92
:100280009F0779F0F80181938F018A30910531F051
:100290000894E108F108E114F10469F7F80110820B
:1002A00002C0C0E0D0E07E01CE01CDB7DEB7E8E00D
:1002B0000C945E04A0E0B0E0E0E6F1E00C944804A9
:1002C000FE013596619171918091AA009091AB00E9
:1002D000AF010E946F012096E2E00C946404ACE050
:1002E000B0E0E5E7F1E00C9438046C011B018A01F1
:1002F000FC0117821682838181FFD1C12E010894EF
:10030000411C511CF6019381F10193FD859193FFEE
:1003100081911F01882309F4BEC1853239F493FD10
:10032000859193FF81911F01853229F490E0B601F8
:100330000E94AE03E7CFEE24FF2420E02032B0F489
:100340008B3269F08C3228F4803251F0833271F4B0
:100350000BC08D3239F0803349F421602CC022600B
:10036000246029C0286027C0206125C027FD2CC03B
:10037000382F30533A3098F426FF08C08E2D880F5E
:10038000E82EEE0CEE0CE80EE30E15C08F2D880F54
:10039000F82EFF0CFF0CF80EF30E20620CC08E320C
:1003A00021F426FD78C1206406C08C3611F4206843
:1003B00002C0883649F4F10193FD859193FF819144
:1003C0001F01882309F0BACF982F9554933018F065
:1003D0009052933028F40C5F1F4FFFE3F9830DC058
:1003E000833631F0833771F0833509F060C022C065
:1003F000F801808189830E5F1F4F420171E0A72EB3
:10040000B12C16C062E0662E712C600E711EF801D0
:100410008080918026FF03C06E2D70E002C06FEFD8
:100420007FEFC4012C870E9461035C0183012C854E
:100430002F7717C052E0652E712C600E711EF801E7
:100440008080918026FF03C06E2D70E002C06FEFA8
:100450007FEFC4012C870E9456035C012C85206825
:10046000830123FD20C008C080E290E0B6012C8704
:100470000E94AE03FA942C858F2D90E0A816B90641
:1004800098F311C0F40127FD859127FF81914F0159
:1004900090E0B6012C870E94AE032C85F110FA94EF
:1004A0000894A108B108A114B10461F7F1C0843621
:1004B00011F0893649F527FF08C0F8016081718184
:1004C000828193810C5F1F4F09C0F80160817181A7
:1004D000882777FD8095982F0E5F1F4F4FE6B42E2B
:1004E000B22297FF09C090958095709561957F4FD6
:1004F0008F4F9F4FF0E8BF2AA2012AE030E00E9410
:10050000DA03782E741845C0853731F43FEEB32EE8
:10051000B2222AE030E025C099EFB92EB2228F3600
:10052000C1F0803720F4883509F0B5C00DC08037A0
:1005300021F0883709F0AFC002C020E1B22AB4FE32
:100540000BC084E0B82A08C0B4FE09C0E6E0BE2AA9
:1005500006C028E030E005C020E130E002C020E124
:1005600032E0B7FE08C0F801608171818281938119
:100570000C5F1F4F07C0F8016081718180E090E03F
:100580000E5F1F4FA2010E94DA03782E7418FFE756
:10059000BF22B6FE0BC02EEFB2227E1438F4B4FE9A
:1005A00007C0B2FC05C08FEEB82202C0A72C01C064
:1005B000AE2C8B2D90E0B4FE0DC0FE01E70DF11DB9
:1005C0002081203319F4E9EEBE2209C0A394B2FEC3
:1005D00006C004C086789070009709F0A3948B2C15
:1005E0009924B3FC14C0B0FE0FC0AF1428F4E72C5C
:1005F000EF0CEA18AF2C08C0E72C06C080E290E0B0
:10060000B6010E94AE03A394AF14C0F304C0AF14AC
:1006100010F4FA1801C0FF2484FE0FC080E390E0BC
:10062000B6010E94AE0382FE1FC081FE03C088E5B2
:1006300090E010C088E790E00DC0C401867890700B
:10064000009791F081FC02C080E201C08BE2B7FC10
:100650008DE290E0B6010E94AE0306C080E390E018
:10066000B6010E94AE03EA947E14C0F37A94F201BC
:10067000E70DF11D808190E0B6010E94AE03772066
:10068000A9F706C080E290E0B6010E94AE03FA949A
:10069000FF20C1F737CEF6012681378102C02FEF48
:1006A0003FEFC9012C96E2E10C945404FC01059043
:1006B000615070400110D8F7809590958E0F9F1F64
:1006C0000895FC016150704001900110D8F78095A9
:1006D00090958E0F9F1F0895CF93DF93EC013B8180
:1006E00030FF36C036FF09C03F7B3B838E819F8140
:1006F00001969F838E832A8129C032FF0FC0E88133
:10070000F9818081992787FD9095009719F43062CF
:100710003B831EC03196F983E88311C0EA85FB85CF
:10072000CE01099597FF0BC02B813FEF8F3F9307B9
:1007300011F480E101C080E2822B8B8309C02E81FD
:100740003F812F5F3F4F3F832E83282F30E002C031
:100750002FEF3FEFC901DF91CF9108950F931F93C2
:10076000CF93DF938C01EB018B8181FF1BC082FF54
:100770000DC02E813F818C819D812817390764F43B
:10078000E881F9810193F983E88306C0E885F9855A
:10079000802F0995009731F48E819F8101969F8368
:1007A0008E8302C00FEF1FEFC801DF91CF911F9121
:1007B0000F910895FA01AA27283051F1203181F1D3
:1007C000E8946F936E7F6E5F7F4F8F4F9F4FAF4F59
:1007D000B1E03ED0B4E03CD0670F781F891F9A1F6C
:1007E000A11D680F791F8A1F911DA11D6A0F711D20
:1007F000811D911DA11D20D009F468943F912AE02C
:10080000269F11243019305D3193DEF6CF01089513
:10081000462F4770405D4193B3E00FD0C9F7F6CF44
:10082000462F4F70405D4A3318F0495D31FD40520C
:10083000419302D0A9F7EACFB4E0A69597958795A2
:1008400077956795BA95C9F7009761057105089581
:100850009B01AC010A2E069457954795379527952D
:10086000BA95C9F7620F731F841F951FA01D0895C5
:100870002F923F924F925F926F927F928F929F92B0
:10088000AF92BF92CF92DF92EF92FF920F931F939E
:10089000CF93DF93CDB7DEB7CA1BDB0B0FB6F8944F
:1008A000DEBF0FBECDBF09942A88398848885F848F
:1008B0006E847D848C849B84AA84B984C884DF8000
:1008C000EE80FD800C811B81AA81B981CE0FD11DE4
:1008D0000FB6F894DEBF0FBECDBFED010895F894BA
:0208E000FFCF48
:1008E2002573000000000300000000A200AA00001F
:0208F200000004
:00000001FF
