:100000000C9430000C944D000C944D000C944D0059
:100010000C944D000C944D000C944D000C944D002C
:100020000C944D000C944D000C944D000C944D001C
:100030000C944D000C944D000C944D000C944D000C
:100040000C944D000C944D000C944D000C944D00FC
:100050000C944D006364696E6F70737578585B0023
:1000600011241FBECFE5D8E0DEBFCDBF12E0A0E671
:10007000B0E0EAE5F4E102C005900D92A63CB107BC
:10008000D9F713E0A6ECB2E001C01D92A230B1078F
:10009000E1F70E9407010C942B0A0C940000982FA2
:1000A000946896BF803119F006B607FEFDCF81B186
:1000B000887F089582E180B908951F93182F80E208
:1000C0000E944F00883021F080E690E00E94EF030C
:1000D00080EC83B980E00E944F00883121F084E7F2
:1000E00090E00E94EF0313B980E00E944F00883235
:1000F00021F080EA90E00E94EF0380E10E944F002F
:1001000085E38A95F1F7000080E20E944F00883075
:1001100021F08AEC90E00E94EF0381EC83B980E04B
:100120000E944F00803421F087EE90E00E94EF03A0
:1001300080E00E944F00883521F085E091E00E9428
:10014000EF0313B180E10E944F00812F1F910895AA
:100150000F931F93182F062F80E20E944F008830C4
:1001600021F088E291E00E94EF0380EC83B980E007
:100170000E944F008831A1F021B100D000D04DE3A2
:1001800051E0EDB7FEB75283418330E0287F3070F5
:10019000348323830E94D3030F900F900F900F900E
:1001A00013B980E00E944F008832A1F081B100D0E5
:1001B00000D020E731E0EDB7FEB73283218390E035
:1001C000887F9070948383830E94D3030F900F9055
:1001D0000F900F9003B980E00E944F00883221F009
:1001E00087E991E00E94EF0380E10E944F001F9198
:1001F0000F91089589E360E40E94A80084E160E221
:100200000E94A80081E168E00E94A80008952F9252
:100210003F924F925F926F927F928F929F92AF9296
:10022000BF92CF92DF92EF92FF920F931F93DF93D3
:10023000CF93CDB7DEB7EE970FB6F894DEBF0FBE03
:10024000CDBF0E941D030E9415020E945A000E9409
:10025000FA004DE0C42ED12CCC0EDD1E34EBA32EC3
:1002600031E0B32E8E010B5F1F4F4E010894811CAD
:10027000911C23E0622E712C6C0E7D1E98E2492E9B
:1002800092E0592E89ED282E81E0382E1D821A82A7
:1002900019821C821B824091FC025091FD02C60112
:1002A00062E370E00E949F03009781F38DB79EB7D1
:1002B0000A970FB6F8949EBF0FBE8DBFEDB7FEB77D
:1002C0003196ADB7BEB71296DC92CE921197B3823B
:1002D000A2821583048397828682718660860E943B
:1002E00024047801EDB7FEB73A960FB6F894FEBF36
:1002F0000FBEEDBF06C090E00E948E03D7018D9324
:100300007D01F70180818823B1F7C8016DEB71E0B1
:100310000E949603009729F489819A810E943703ED
:10032000B5CFC80161EC71E00E949603009731F4EB
:1003300089819A816B810E945903A8CFC80165EC1D
:1003400071E00E949603009729F489819A810E94A6
:1003500040020BC0C8016BEC71E00E94960300974D
:1003600039F489819A810E945D0289EC91E04AC04A
:10037000C80160ED71E00E949603009791F4E98056
:10038000FA808E2D0E945D0000D000D000D0EDB725
:10039000FEB73196ADB7BEB712963C922E9211972A
:1003A00020C0C80169E072E00E949603009741F501
:1003B00089816B810E94A80082E192E00E94EF0394
:1003C000E980FA808E2D0E945D0000D000D000D020
:1003D000EDB7FEB73196ADB7BEB712965C924E92AE
:1003E0001197E282F382848315820E94D303EDB7D2
:1003F000FEB736960FB6F894FEBF0FBEEDBF46CFE0
:1004000083E592E00E94EF0341CF46EF5FEF849FC8
:100410009001859F300D949F300D112428543B4D41
:10042000C901089580E381BB089580EF8FBD82E10B
:100430008EBD80E197E297BD86BD40916C025091E0
:100440006D0226EF3FEF429FC001439F900D529FE8
:10045000900D112488549B4D9BBD8ABD40916E0226
:1004600050916F02429FC001439F900D529F900D8B
:10047000112488549B4D99BD88BD80E381BB0895AC
:10048000853B91051CF497FD04C005C084EB90E00A
:1004900002C080E090E090936D0280936C0246EF82
:1004A0005FEF849F9001859F300D949F300D112444
:1004B00028543B4D3BBD2ABD08958B38910524F44B
:1004C0008230910524F005C08AE890E002C082E005
:1004D00090E090936F0280936E0246EF5FEF849FEF
:1004E0009001859F300D949F300D112428543B4D71
:1004F00039BD28BD089580916C0290916D020895D8
:1005000020916C0230916D02280F391F30936D02DB
:1005100020936C02C9010E944002089580916E02EE
:1005200090916F02089520916E0230916F02280F12
:10053000391F30936F0220936E02C9010E945D0241
:10054000089501C08DE05D9BFECF8CB98A30D1F358
:1005500008958091F8029091F902009709F05DC02A
:1005600086EC92E09093FB028093FA025F9BFECFB1
:100570008CB18D30C9F4E091FA02F091FB028AE06F
:1005800080838091FA029091FB0201969093FB0286
:100590008093FA028AE00E94A10286EC92E0909396
:1005A000F9028093F80239C0982F90529F35C0F419
:1005B000E091FA02F091FB0222E0E63FF20711F42B
:1005C00087E00BC080832091FA023091FB022F5FFD
:1005D0003F4F3093FB022093FA020E94A102C6CF44
:1005E000883011F08F3711F68091FA029091FB025A
:1005F00022E0863C920709F008F4B8CF88E00E9418
:10060000A10280E20E94A10288E00E94A1028091E2
:10061000FA029091FB020197A5CFE091F802F091C8
:10062000F9028191F093F902E093F8028A3021F403
:100630001092F9021092F802089583E389B91BB869
:1006400088E18AB986E880BD1092F9021092F8021A
:100650001092FB021092FA0287EB92E09093FD0257
:100660008093FC029093FF028093FE0208951F93F3
:10067000FC01108100D000D000D0EDB7FEB731965C
:1006800020E732E0ADB7BEB712963C932E93119798
:1006900082839383148315820E94D3038DB79EB700
:1006A00006960FB6F8949EBF0FBE8DBF812F1F9187
:1006B0000895FC01608320812617F1F4408100D069
:1006C00000D000D0EDB7FEB731962AE832E0ADB7E2
:1006D000BEB712963C932E93119742831382848364
:1006E00095830E94D303EDB7FEB736960FB6F89404
:1006F000FEBF0FBEEDBF0DC000D086EA92E0ADB7E1
:10070000BEB712969C938E9311970E94D3030F90BD
:100710000F908AE090E00E94E803089591110895F7
:1007200081568A5108F4805285580895FB01DC01F6
:100730008D91019080190110D9F3990B0895A0E0D3
:10074000B0E0E5EAF3E00C94FE09EC016A01FA017D
:10075000838180FF1FC016161706E4F47B010894FE
:10076000E108F1088E0110C0C6010E940A09FFEFDE
:100770008F3F9F0779F0F80181938F018A309105AF
:1007800031F00894E108F108E114F10469F7F80187
:10079000108202C0C0E0D0E07E01CE01CDB7DEB74E
:1007A000E8E00C941A0AA0E0B0E0E9EDF3E00C9464
:1007B000040AFE013596619171918091FE0290913B
:1007C000FF02AF010E943E042096E2E00C94200A52
:1007D0006091FE027091FF020E944C090895EF9211
:1007E000FF920F931F93CF93DF938C01E091FE0252
:1007F000F091FF02838181FF1FC0C0E0D0E00AC0FA
:10080000DB011896ED91FC9119970995009711F06D
:10081000CFEFDFEFF80181918F016091FE027091BF
:10082000FF02882369F7DB011896ED91FC91199777
:100830008AE00995009711F0CFEFDFEFCE01CDB739
:10084000DEB7E6E00C941C0AAEE0B0E0EAE2F4E0C9
:100850000C94040A85E08C838B899C899A83898314
:100860009E01295E3F4FCE0101966D897E89A901C7
:100870000E94BA072E96E2E00C94200AACE0B0E0A9
:10088000E4E4F4E00C94F4096C011B018A01FC011E
:1008900017821682838181FFD1C12E010894411CE9
:1008A000511CF6019381F10193FD859193FF819194
:1008B0001F01882309F4BEC1853239F493FD859167
:1008C00093FF81911F01853229F490E0B6010E94C7
:1008D0004C09E7CFEE24FF2420E02032B0F48B3225
:1008E00069F08C3228F4803251F0833271F40BC0FD
:1008F0008D3239F0803349F421602CC022602460AD
:1009000029C0286027C0206125C027FD2CC0382FB2
:1009100030533A3098F426FF08C08E2D880FE82E09
:10092000EE0CEE0CE80EE30E15C08F2D880FF82E9E
:10093000FF0CFF0CF80EF30E20620CC08E3221F477
:1009400026FD78C1206406C08C3611F4206802C0F0
:10095000883649F4F10193FD859193FF81911F0140
:10096000882309F0BACF982F9554933018F09052FD
:10097000933028F40C5F1F4FFFE3F9830DC08336DB
:1009800031F0833771F0833509F060C022C0F8017F
:10099000808189830E5F1F4F420171E0A72EB12C29
:1009A00016C062E0662E712C600E711EF801808008
:1009B000918026FF03C06E2D70E002C06FEF7FEFC5
:1009C000C4012C870E94FF085C0183012C852F77CE
:1009D00017C052E0652E712C600E711EF8018080E8
:1009E000918026FF03C06E2D70E002C06FEF7FEF95
:1009F000C4012C870E94F4085C012C8520688301C7
:100A000023FD20C008C080E290E0B6012C870E9440
:100A10004C09FA942C858F2D90E0A816B90698F30E
:100A200011C0F40127FD859127FF81914F0190E0CE
:100A3000B6012C870E944C092C85F110FA94089479
:100A4000A108B108A114B10461F7F1C0843611F016
:100A5000893649F527FF08C0F801608171818281DC
:100A600093810C5F1F4F09C0F80160817181882755
:100A700077FD8095982F0E5F1F4F4FE6B42EB22260
:100A800097FF09C090958095709561957F4F8F4F26
:100A90009F4FF0E8BF2AA2012AE030E00E949309AC
:100AA000782E741845C0853731F43FEEB32EB2224C
:100AB0002AE030E025C099EFB92EB2228F36C1F07E
:100AC000803720F4883509F0B5C00DC0803721F09B
:100AD000883709F0AFC002C020E1B22AB4FE0BC0D3
:100AE00084E0B82A08C0B4FE09C0E6E0BE2A06C009
:100AF00028E030E005C020E130E002C020E132E033
:100B0000B7FE08C0F80160817181828193810C5F1A
:100B10001F4F07C0F8016081718180E090E00E5F97
:100B20001F4FA2010E949309782E7418FFE7BF227D
:100B3000B6FE0BC02EEFB2227E1438F4B4FE07C00E
:100B4000B2FC05C08FEEB82202C0A72C01C0AE2CAB
:100B50008B2D90E0B4FE0DC0FE01E70DF11D20814C
:100B6000203319F4E9EEBE2209C0A394B2FE06C0F8
:100B700004C086789070009709F0A3948B2C992478
:100B8000B3FC14C0B0FE0FC0AF1428F4E72CEF0C78
:100B9000EA18AF2C08C0E72C06C080E290E0B6014E
:100BA0000E944C09A394AF14C0F304C0AF1410F416
:100BB000FA1801C0FF2484FE0FC080E390E0B60164
:100BC0000E944C0982FE1FC081FE03C088E590E0B0
:100BD00010C088E790E00DC0C4018678907000973F
:100BE00091F081FC02C080E201C08BE2B7FC8DE293
:100BF00090E0B6010E944C0906C080E390E0B60187
:100C00000E944C09EA947E14C0F37A94F201E70D35
:100C1000F11D808190E0B6010E944C097720A9F770
:100C200006C080E290E0B6010E944C09FA94FF20D1
:100C3000C1F737CEF6012681378102C02FEF3FEF93
:100C4000C9012C96E2E10C94100A20FD09C0FC01B8
:100C500023FD05C022FF02C073836283518340835A
:100C60000895EF92FF920F931F9344FD10C046FD2D
:100C700010C0DB01FC01AA0FBB1FEE1FFF1F109469
:100C8000D1F76A0F7B1F8E1F9F1F31E003C033E037
:100C900001C034E0660F771F881F991F3150D1F7CC
:100CA0007B018C01E20EF11C011D111DA8019701B1
:100CB000B701CA011F910F91FF90EF900895EF9235
:100CC000FF920F931F93CF93DF938C01C8010E9473
:100CD0000A09EC0197FD09C00E94E1080097B1F7ED
:100CE0007E01CE01B8010E947809CE01CDB7DEB7F2
:100CF000E6E00C941C0A8F929F92AF92BF92DF9213
:100D0000EF92FF920F931F93DF93CF930F92CDB784
:100D1000DEB74C01D62E5A01122F0E940A098B32DF
:100D200019F08D3249F41068DA9409F46CC0C401EA
:100D30000E940A0997FD67C0312F3D7F232F207342
:100D4000F1F48033E1F4DA9409F448C0C401398342
:100D50000E940A09398197FD41C03260883711F03D
:100D6000883559F43064DA94C9F1C40139830E949A
:100D70000A09398197FF03C031C036FF3061EE2484
:100D8000FF248701282F2053283090F034FD09C01C
:100D90002A3070F036FF05C02F7D422F415146307A
:100DA00030F0B40139830E947809398114C027508A
:100DB000C801B701432F39830E9431067B018C01A2
:100DC00039813260DA9469F0C40139830E940A09DA
:100DD000398197FFD7CF31FD04C015C0EE24FF2421
:100DE000870137FF08C010950095F094E094E11C4E
:100DF000F11C011D111DC501B801A701232F0E947F
:100E0000250681E001C080E00F90CF91DF911F9116
:100E10000F91FF90EF90DF90BF90AF909F908F90D9
:100E20000895A1E2B0E0E7E1F7E00C94F8096C0165
:100E30008A0179019E012F5F3F4F80E2F9011192F3
:100E40008A95E9F7F601838080E090E0BB2499243D
:100E500070E0A1E0B0E0F70183FCA59083FEA190D3
:100E60007F01AA2009F47FC0FA2DFE3511F4009706
:100E700051F1472F50E04817590744F44A2D4D359A
:100E800051F14D3219F4992001F103C0992009F470
:100E9000BA2C4A2D469546954695F901E40FF11D69
:100EA0004A2D47703D0102C0660C771C4A95E2F757
:100EB000908096289082AB1459F0AB1410F4A39450
:100EC000E8CFAA94E6CF71E004C09924939401C0BE
:100ED00099240196C0CF992019F08E8180628E836B
:100EE000772351F0CE018196FE0131962081209525
:100EF0002193E817F907D1F7BB24B3944E01089466
:100F0000811C911C01C0BB24C60169A30E940A096F
:100F100069A197FD20C0282F269526952695F401D6
:100F2000E20FF11D208130E0AC014770507002C02B
:100F3000359527954A95E2F720FD04C0B6010E9439
:100F4000780909C00115110519F0F80181938F0185
:100F50006150C9F602C0BB2031F40115110529F01A
:100F6000F801108202C0EE24FF24C701A196EEE032
:100F70000C94140A4F925F926F927F929F92AF925D
:100F8000BF92CF92DF92EF92FF920F931F93DF9366
:100F9000CF930F92CDB7DEB77C016B013A01FC0114
:100FA0001782168200E0E9C0812F90E00E94E108DC
:100FB000009721F0C7010E945F06DFC0153241F49F
:100FC000F601A3FC3591A3FE31916F01353261F436
:100FD000C7010E940A0997FDDCC0181709F4CDC0AB
:100FE000B7010E947809D7C03A3239F4A3FC359191
:100FF000A3FE31916F0111E001C010E099240FC0F0
:101000001260692D70E080E090E040E20E943106BD
:10101000962EF601A3FC3591A3FE31916F01232F8B
:1010200020532A3068F311FF03C0992019F4B3C08C
:1010300099249A94383619F03C3689F409C0F6019F
:10104000A3FC3591A3FE31916F01383641F418604D
:101050001460F601A3FC3591A3FE31916F01332397
:1010600009F499C084E590E0632F70E039830E9411
:10107000E9083981009709F48EC0812F10FD08C05E
:10108000F3014080518042E050E0640E751E02C0C2
:10109000442455243E3651F4F7014681578160E0DF
:1010A00070E0C201212F0E94250667C0333691F4FB
:1010B00081FD02C099249394C7010E940A0997FDFB
:1010C00068C04114510419F0F20181932F019A94E0
:1010D00099F751C03B3559F4C701692DA20196011A
:1010E0000E9411076C01009709F045C03FC0C7017D
:1010F00039830E945F06398197FD4BC03F3659F115
:10110000303728F4343629F1393639F527C03337EA
:1011100019F0353711F51DC0C7010E940A095C019D
:1011200097FD11C00E94E108009729F0C501B701A1
:101130000E94780908C04114510419F0F201A192EB
:101140002F019A9449F741145104A9F0F201108239
:1011500012C0106203C0106101C01064C701692D84
:10116000A201212F0E947B06882329F4F7018381A5
:10117000807379F410C010FF0F5FF701A380F601B0
:10118000A3FC1591A3FE11916F01112309F00CCF5F
:1011900002C0002311F010E002C00FEF1FEFC801E2
:1011A0000F90CF91DF911F910F91FF90EF90DF9003
:1011B000CF90BF90AF909F907F906F905F904F9037
:1011C000089591110EC1803219F089508550D0F7E1
:1011D0000895FC010590061621F00020D9F7C00102
:1011E00008953197CF010895FC010590615070403A
:1011F0000110D8F7809590958E0F9F1F0895FC01E0
:101200006150704001900110D8F7809590958E0F35
:101210009F1F0895CF93DF93EC013B8130FF36C0D1
:1012200036FF09C03F7B3B838E819F8101969F8360
:101230008E832A8129C032FF0FC0E881F981808125
:10124000992787FD9095009719F430623B831EC063
:101250003196F983E88311C0EA85FB85CE010995B3
:1012600097FF0BC02B813FEF8F3F930711F480E175
:1012700001C080E2822B8B8309C02E813F812F5FCA
:101280003F4F3F832E83282F30E002C02FEF3FEFE8
:10129000C901DF91CF9108950F931F93CF93DF93EF
:1012A0008C01EB018B8181FF1BC082FF0DC02E8161
:1012B0003F818C819D812817390764F4E881F98189
:1012C0000193F983E88306C0E885F985802F0995A5
:1012D000009731F48E819F8101969F838E8302C097
:1012E0000FEF1FEFC801DF91CF911F910F9108956C
:1012F000FB01238120FF13C026FD11C03FEF8F3F6C
:10130000930769F0828320642F7D238326813781B0
:101310002150304037832683282F30E002C02FEF42
:101320003FEFC9010895FA01AA27283051F1203171
:1013300081F1E8946F936E7F6E5F7F4F8F4F9F4F69
:10134000AF4FB1E03ED0B4E03CD0670F781F891FAB
:101350009A1FA11D680F791F8A1F911DA11D6A0F79
:10136000711D811D911DA11D20D009F468943F912C
:101370002AE0269F11243019305D3193DEF6CF012B
:101380000895462F4770405D4193B3E00FD0C9F7F1
:10139000F6CF462F4F70405D4A3318F0495D31FD5E
:1013A0004052419302D0A9F7EACFB4E0A6959795B1
:1013B000879577956795BA95C9F700976105710587
:1013C00008959B01AC010A2E0694579547953795D1
:1013D0002795BA95C9F7620F731F841F951FA01D2B
:1013E00008959927882708952F923F924F925F92F0
:1013F0006F927F928F929F92AF92BF92CF92DF9225
:10140000EF92FF920F931F93CF93DF93CDB7DEB789
:10141000CA1BDB0B0FB6F894DEBF0FBECDBF09941D
:101420002A88398848885F846E847D848C849B8474
:10143000AA84B984C884DF80EE80FD800C811B8182
:10144000AA81B981CE0FD11D0FB6F894DEBF0FBEB1
:0A145000CDBFED010895F894FFCF21
:10145A004572726F72205374617274696E6720529A
:10146A00656164004572726F722053656E64696EBD
:10147A00672043616D657261205772697465204106
:10148A0064647265737320666F72205265616400CA
:10149A004572726F722053656E64696E672043618C
:1014AA006D65726120526567204164647265737369
:1014BA0020666F722052656164004572726F7220F5
:1014CA0053656E64696E6720526570656174656400
:1014DA00205374617274004572726F72204765748A
:1014EA0074696E672043616D65726120526561643B
:1014FA002041434B004572726F72205265616469E4
:10150A006E672046726F6D2043616D65726120526D
:10151A0065676973746572004572726F72205374DD
:10152A00617274696E6720577269746500457272D8
:10153A006F722053656E64696E672043616D6572D0
:10154A0061205772697465204164647265737320FF
:10155A00666F7220577269746520307825580A00C0
:10156A004572726F722053656E64696E67205265A8
:10157A0067697374657220746F2043616D65726167
:10158A0020307825580A004572726F722053656EB2
:10159A0064696E67204461746120746F2043616DD1
:1015AA006572610025732025692025690052494F1B
:1015BA000057494F0050414E000A0054494C54000C
:1015CA00524443414D5245470043616D6572612063
:1015DA005265676973746572203D203078255820FA
:1015EA002052656769737465722056616C7565204F
:1015FA003D20307825580A0A00575243414D52453A
:10160A004700577269746520446F6E652C205665D1
:10161A0072696679696E670043616D65726120520D
:10162A0065676973746572203D2030782558204EAD
:10163A006F7720436F6E7461696E73203078255816
:10164A000A0A004E6F2056616C69642046756E6303
:10165A0074696F6E20466F756E640A005A005A00EC
:10166A00526567697374657220257520636F6E749D
:10167A0061696E732025750A0A0056616C756520CA
:10168A002575206E6F7720726573696465732069AA
:10169A006E2025750A00536F6D657468696E672040
:1016AA004661696C6564000000000300000000A147
:0616BA0002A9020000007D
:00000001FF
