:100000000C9430000C944D000C944D000C944D0059
:100010000C944D000C944D000C944D000C944D002C
:100020000C944D000C944D000C944D000C944D001C
:100030000C944D000C944D000C944D000C944D000C
:100040000C944D000C944D000C944D000C944D00FC
:100050000C944D006364696E6F70737578585B0023
:1000600011241FBECFE5D8E0DEBFCDBF10E0A0E673
:10007000B0E0E6E3F2E102C005900D92AC3EB107BC
:10008000D9F711E0ACEEB0E001C01D92A832B10783
:10009000E1F70E944F000C9419090C9400006F9234
:1000A0007F928F929F92AF92BF92CF92DF92EF9208
:1000B000FF920F931F93DF93CF93CDB7DEB7E997EE
:1000C0000FB6F894DEBF0FBECDBF0E940B020E9498
:1000D000030128E0C22ED12CCC0EDD1E90E6A92E05
:1000E00090E0B92E8E010B5F1F4F4E010894811CCA
:1000F000911C83E0682E712C6C0E7D1E1D821A826D
:1001000019821C821B824091220150912301C60159
:1001100062E370E00E948D02009781F38DB79EB775
:100120000A970FB6F8949EBF0FBE8DBFEDB7FEB70E
:100130003196ADB7BEB71296DC92CE921197B382CC
:10014000A2821583048397828682718660860E94CC
:1001500012037801EDB7FEB73A960FB6F894FEBFDA
:100160000FBEEDBF06C090E00E947C02D7018D93C8
:100170007D01F70180818823B1F7C80169E670E04D
:100180000E948402009729F489819A810E942502A5
:10019000B5CFC8016DE670E00E948402009731F48B
:1001A00089819A816B810E944702A8CFC80161E7CB
:1001B00070E00E948402009729F489819A810E944C
:1001C0002E019CCFC80165E770E00E948402009771
:1001D00029F489819A810E944B0190CF89E790E0B0
:1001E0000E94DD028BCF46EF5FEF849F9001859FD9
:1001F000300D949F300D112428543B4DC9010895B2
:1002000080E381BB089580EF8FBD82E18EBD80E1E8
:1002100097E297BD86BD409192005091930026EFE2
:100220003FEF429FC001439F900D529F900D1124BC
:1002300088549B4D9BBD8ABD409194005091950080
:10024000429FC001439F900D529F900D11248854EE
:100250009B4D99BD88BD80E381BB0895853B910589
:100260001CF497FD04C005C084EB90E002C080E060
:1002700090E0909393008093920046EF5FEF849F0D
:100280009001859F300D949F300D112428543B4DD3
:100290003BBD2ABD08958B38910524F48230910529
:1002A00024F005C08AE890E002C082E090E09093DC
:1002B00095008093940046EF5FEF849F9001859FA7
:1002C000300D949F300D112428543B4D39BD28BD6D
:1002D000089580919200909193000895209192004A
:1002E00030919300280F391F309393002093920090
:1002F000C9010E942E01089580919400909195006B
:1003000008952091940030919500280F391F309363
:10031000950020939400C9010E944B01089501C0EB
:100320008DE05D9BFECF8CB98A30D1F3089580912A
:100330001E0190911F01009709F05DC08CEE90E0C6
:1003400090932101809320015F9BFECF8CB18D3073
:10035000C9F4E0912001F09121018AE0808380912D
:100360002001909121010196909321018093200119
:100370008AE00E948F018CEE90E090931F018093A1
:100380001E0139C0982F90529F35C0F4E091200192
:10039000F091210121E0EC31F20711F487E00BC06C
:1003A000808320912001309121012F5F3F4F3093B6
:1003B0002101209320010E948F01C6CF883011F0C7
:1003C0008F3711F6809120019091210120E08C3E21
:1003D000920709F008F4B8CF88E00E948F0180E20C
:1003E0000E948F0188E00E948F01809120019091EE
:1003F00021010197A5CFE0911E01F0911F0181918C
:10040000F0931F01E0931E018A3021F410921F0126
:1004100010921E01089583E389B91BB888E18AB957
:1004200086E880BD10921F0110921E0110922101DA
:10043000109220018DED90E0909323018093220192
:10044000909325018093240108951F93FC0110814E
:1004500000D000D000D0EDB7FEB7319626E930E0ED
:10046000ADB7BEB712963C932E93119782839383B8
:10047000148315820E94C1028DB79EB706960FB6EF
:10048000F8949EBF0FBE8DBF812F1F910895FC0170
:10049000608320812617F1F4408100D000D000D085
:1004A000EDB7FEB7319620EB30E0ADB7BEB7129690
:1004B0003C932E93119742831382848395830E94E9
:1004C000C102EDB7FEB736960FB6F894FEBF0FBE69
:1004D000EDBF0DC000D08CEC90E0ADB7BEB712966A
:1004E0009C938E9311970E94C1020F900F908AE007
:1004F00090E00E94D60208959111089581568A5184
:1005000008F4805285580895FB01DC018D9101901B
:1005100080190110D9F3990B0895A0E0B0E0E3E948
:10052000F2E00C94EC08EC016A01FA01838180FF8F
:100530001FC016161706E4F47B010894E108F108C1
:100540008E0110C0C6010E94F807FFEF8F3F9F0782
:1005500079F0F80181938F018A30910531F0089488
:10056000E108F108E114F10469F7F801108202C012
:10057000C0E0D0E07E01CE01CDB7DEB7E8E00C945C
:100580000809A0E0B0E0E7ECF2E00C94F208FE010C
:100590003596619171918091240190912501AF016F
:1005A0000E942C032096E2E00C940E096091240135
:1005B000709125010E943A080895EF92FF920F93DF
:1005C0001F93CF93DF938C01E0912401F0912501DB
:1005D000838181FF1FC0C0E0D0E00AC0DB01189614
:1005E000ED91FC9119970995009711F0CFEFDFEF8E
:1005F000F80181918F016091240170912501882378
:1006000069F7DB011896ED91FC9119978AE009953D
:10061000009711F0CFEFDFEFCE01CDB7DEB7E6E008
:100620000C940A09AEE0B0E0E8E1F3E00C94F208C3
:1006300085E08C838B899C899A8389839E01295EBE
:100640003F4FCE0101966D897E89A9010E94A806BF
:100650002E96E2E00C940E09ACE0B0E0E2E3F3E0A9
:100660000C94E2086C011B018A01FC0117821682BE
:10067000838181FFD1C12E010894411C511CF601D8
:100680009381F10193FD859193FF81911F0188234F
:1006900009F4BEC1853239F493FD859193FF8191B0
:1006A0001F01853229F490E0B6010E943A08E7CF95
:1006B000EE24FF2420E02032B0F48B3269F08C323B
:1006C00028F4803251F0833271F40BC08D3239F04E
:1006D000803349F421602CC02260246029C0286046
:1006E00027C0206125C027FD2CC0382F30533A3059
:1006F00098F426FF08C08E2D880FE82EEE0CEE0C25
:10070000E80EE30E15C08F2D880FF82EFF0CFF0C9E
:10071000F80EF30E20620CC08E3221F426FD78C153
:10072000206406C08C3611F4206802C0883649F473
:10073000F10193FD859193FF81911F01882309F0B9
:10074000BACF982F9554933018F09052933028F4E4
:100750000C5F1F4FFFE3F9830DC0833631F0833701
:1007600071F0833509F060C022C0F801808189836F
:100770000E5F1F4F420171E0A72EB12C16C062E040
:10078000662E712C600E711EF8018080918026FF0C
:1007900003C06E2D70E002C06FEF7FEFC4012C87A5
:1007A0000E94ED075C0183012C852F7717C052E072
:1007B000652E712C600E711EF8018080918026FFDD
:1007C00003C06E2D70E002C06FEF7FEFC4012C8775
:1007D0000E94E2075C012C852068830123FD20C074
:1007E00008C080E290E0B6012C870E943A08FA9493
:1007F0002C858F2D90E0A816B90698F311C0F4014E
:1008000027FD859127FF81914F0190E0B6012C874C
:100810000E943A082C85F110FA940894A108B108B6
:10082000A114B10461F7F1C0843611F0893649F59D
:1008300027FF08C0F80160817181828193810C5F7C
:100840001F4F09C0F80160817181882777FD80956D
:10085000982F0E5F1F4F4FE6B42EB22297FF09C0AC
:1008600090958095709561957F4F8F4F9F4FF0E8E1
:10087000BF2AA2012AE030E00E948108782E741875
:1008800045C0853731F43FEEB32EB2222AE030E086
:1008900025C099EFB92EB2228F36C1F0803720F4EF
:1008A000883509F0B5C00DC0803721F0883709F0D0
:1008B000AFC002C020E1B22AB4FE0BC084E0B82A67
:1008C00008C0B4FE09C0E6E0BE2A06C028E030E059
:1008D00005C020E130E002C020E132E0B7FE08C0F0
:1008E000F80160817181828193810C5F1F4F07C085
:1008F000F8016081718180E090E00E5F1F4FA201DE
:100900000E948108782E7418FFE7BF22B6FE0BC044
:100910002EEFB2227E1438F4B4FE07C0B2FC05C03C
:100920008FEEB82202C0A72C01C0AE2C8B2D90E018
:10093000B4FE0DC0FE01E70DF11D2081203319F436
:10094000E9EEBE2209C0A394B2FE06C004C08678B8
:100950009070009709F0A3948B2C9924B3FC14C0D9
:10096000B0FE0FC0AF1428F4E72CEF0CEA18AF2C40
:1009700008C0E72C06C080E290E0B6010E943A0869
:10098000A394AF14C0F304C0AF1410F4FA1801C05C
:10099000FF2484FE0FC080E390E0B6010E943A0875
:1009A00082FE1FC081FE03C088E590E010C088E78A
:1009B00090E00DC0C40186789070009791F081FCA2
:1009C00002C080E201C08BE2B7FC8DE290E0B6018C
:1009D0000E943A0806C080E390E0B6010E943A08FF
:1009E000EA947E14C0F37A94F201E70DF11D808140
:1009F00090E0B6010E943A087720A9F706C080E28D
:100A000090E0B6010E943A08FA94FF20C1F737CE71
:100A1000F6012681378102C02FEF3FEFC9012C96E6
:100A2000E2E10C94FE0820FD09C0FC0123FD05C095
:100A300022FF02C073836283518340830895EF9243
:100A4000FF920F931F9344FD10C046FD10C0DB01C1
:100A5000FC01AA0FBB1FEE1FFF1F1094D1F76A0FF6
:100A60007B1F8E1F9F1F31E003C033E001C034E0C5
:100A7000660F771F881F991F3150D1F77B018C01BA
:100A8000E20EF11C011D111DA8019701B701CA0159
:100A90001F910F91FF90EF900895EF92FF920F93A7
:100AA0001F93CF93DF938C01C8010E94F807EC01DC
:100AB00097FD09C00E94CF070097B1F77E01CE01D4
:100AC000B8010E946608CE01CDB7DEB7E6E00C940F
:100AD0000A098F929F92AF92BF92DF92EF92FF929C
:100AE0000F931F93DF93CF930F92CDB7DEB74C01D7
:100AF000D62E5A01122F0E94F8078B3219F08D3230
:100B000049F41068DA9409F46CC0C4010E94F80733
:100B100097FD67C0312F3D7F232F2073F1F4803381
:100B2000E1F4DA9409F448C0C40139830E94F8075B
:100B3000398197FD41C03260883711F0883559F40A
:100B40003064DA94C9F1C40139830E94F80739810D
:100B500097FF03C031C036FF3061EE24FF248701C8
:100B6000282F2053283090F034FD09C02A3070F02F
:100B700036FF05C02F7D422F4151463030F0B40181
:100B800039830E946608398114C02750C801B70113
:100B9000432F39830E941F057B018C01398132600C
:100BA000DA9469F0C40139830E94F807398197FF0C
:100BB000D7CF31FD04C015C0EE24FF24870137FFD5
:100BC00008C010950095F094E094E11CF11C011D03
:100BD000111DC501B801A701232F0E94130581E053
:100BE00001C080E00F90CF91DF911F910F91FF9096
:100BF000EF90DF90BF90AF909F908F900895A1E20B
:100C0000B0E0E5E0F6E00C94E6086C018A017901B9
:100C10009E012F5F3F4F80E2F90111928A95E9F71B
:100C2000F601838080E090E0BB24992470E0A1E08D
:100C3000B0E0F70183FCA59083FEA1907F01AA207C
:100C400009F47FC0FA2DFE3511F4009751F1472FBA
:100C500050E04817590744F44A2D4D3551F14D32B3
:100C600019F4992001F103C0992009F4BA2C4A2DF6
:100C7000469546954695F901E40FF11D4A2D4770BA
:100C80003D0102C0660C771C4A95E2F790809628D9
:100C90009082AB1459F0AB1410F4A394E8CFAA944B
:100CA000E6CF71E004C09924939401C09924019681
:100CB000C0CF992019F08E8180628E83772351F006
:100CC000CE018196FE013196208120952193E8176F
:100CD000F907D1F7BB24B3944E010894811C911CF1
:100CE00001C0BB24C60169A30E94F80769A197FD52
:100CF00020C0282F269526952695F401E20FF11D98
:100D0000208130E0AC014770507002C035952795C6
:100D10004A95E2F720FD04C0B6010E94660809C0AA
:100D20000115110519F0F80181938F016150C9F681
:100D300002C0BB2031F40115110529F0F801108221
:100D400002C0EE24FF24C701A196EEE00C94020934
:100D50004F925F926F927F929F92AF92BF92CF928B
:100D6000DF92EF92FF920F931F93DF93CF930F9237
:100D7000CDB7DEB77C016B013A01FC011782168208
:100D800000E0E9C0812F90E00E94CF07009721F09A
:100D9000C7010E944D05DFC0153241F4F601A3FCE6
:100DA0003591A3FE31916F01353261F4C7010E9484
:100DB000F80797FDDCC0181709F4CDC0B7010E94F1
:100DC0006608D7C03A3239F4A3FC3591A3FE3191BD
:100DD0006F0111E001C010E099240FC01260692D6D
:100DE00070E080E090E040E20E941F05962EF60140
:100DF000A3FC3591A3FE31916F01232F20532A309C
:100E000068F311FF03C0992019F4B3C099249A9490
:100E1000383619F03C3689F409C0F601A3FC359147
:100E2000A3FE31916F01383641F418601460F60169
:100E3000A3FC3591A3FE31916F01332309F499C0CE
:100E400084E590E0632F70E039830E94D7073981F1
:100E5000009709F48EC0812F10FD08C0F301408077
:100E6000518042E050E0640E751E02C044245524B7
:100E70003E3651F4F7014681578160E070E0C201CF
:100E8000212F0E94130567C0333691F481FD02C003
:100E900099249394C7010E94F80797FD68C04114F4
:100EA000510419F0F20181932F019A9499F751C0DE
:100EB0003B3559F4C701692DA20196010E94FF0537
:100EC0006C01009709F045C03FC0C70139830E94FB
:100ED0004D05398197FD4BC03F3659F1303728F425
:100EE000343629F1393639F527C0333719F035371B
:100EF00011F51DC0C7010E94F8075C0197FD11C0E4
:100F00000E94CF07009729F0C501B7010E9466082B
:100F100008C04114510419F0F201A1922F019A94D2
:100F200049F741145104A9F0F201108212C0106275
:100F300003C0106101C01064C701692DA201212FF7
:100F40000E946905882329F4F7018381807379F46D
:100F500010C010FF0F5FF701A380F601A3FC1591ED
:100F6000A3FE11916F01112309F00CCF02C00023E1
:100F700011F010E002C00FEF1FEFC8010F90CF91EA
:100F8000DF911F910F91FF90EF90DF90CF90BF9076
:100F9000AF909F907F906F905F904F9008959111C8
:100FA0000EC1803219F089508550D0F70895FC01A8
:100FB0000590061621F00020D9F7C0010895319759
:100FC000CF010895FC010590615070400110D8F7E1
:100FD000809590958E0F9F1F0895FC016150704081
:100FE00001900110D8F7809590958E0F9F1F08955E
:100FF000CF93DF93EC013B8130FF36C036FF09C051
:101000003F7B3B838E819F8101969F838E832A81C4
:1010100029C032FF0FC0E881F9818081992787FDBF
:101020009095009719F430623B831EC03196F98386
:10103000E88311C0EA85FB85CE01099597FF0BC0B7
:101040002B813FEF8F3F930711F480E101C080E2D5
:10105000822B8B8309C02E813F812F5F3F4F3F83BF
:101060002E83282F30E002C02FEF3FEFC901DF9120
:10107000CF9108950F931F93CF93DF938C01EB01D2
:101080008B8181FF1BC082FF0DC02E813F818C812F
:101090009D812817390764F4E881F9810193F98368
:1010A000E88306C0E885F985802F0995009731F41B
:1010B0008E819F8101969F838E8302C00FEF1FEF69
:1010C000C801DF91CF911F910F910895FB012381FA
:1010D00020FF13C026FD11C03FEF8F3F930769F03B
:1010E000828320642F7D23832681378121503040E5
:1010F00037832683282F30E002C02FEF3FEFC9014E
:101100000895FA01AA27283051F1203181F1E8949D
:101110006F936E7F6E5F7F4F8F4F9F4FAF4FB1E0EA
:101120003ED0B4E03CD0670F781F891F9A1FA11DE5
:10113000680F791F8A1F911DA11D6A0F711D811DE6
:10114000911DA11D20D009F468943F912AE0269FAB
:1011500011243019305D3193DEF6CF010895462F0A
:101160004770405D4193B3E00FD0C9F7F6CF462FEB
:101170004F70405D4A3318F0495D31FD4052419354
:1011800002D0A9F7EACFB4E0A69597958795779511
:101190006795BA95C9F700976105710508959B0198
:1011A000AC010A2E06945795479537952795BA9521
:1011B000C9F7620F731F841F951FA01D08959927FB
:1011C000882708952F923F924F925F926F927F925D
:1011D0008F929F92AF92BF92CF92DF92EF92FF9247
:1011E0000F931F93CF93DF93CDB7DEB7CA1BDB0BF3
:1011F0000FB6F894DEBF0FBECDBF09942A88398898
:1012000048885F846E847D848C849B84AA84B9849E
:10121000C884DF80EE80FD800C811B81AA81B981AA
:10122000CE0FD11D0FB6F894DEBF0FBECDBFED01BE
:061230000895F894FFCFC1
:1012360025732025692025690052494F0057494FDB
:101246000050414E00544C54004E6F2056616C695C
:10125600642046756E6374696F6E20466F756E64A2
:101266000A005A005A005265676973746572202530
:101276007520636F6E7461696E732025750A0A00A6
:1012860056616C7565202575206E6F7720726573C3
:101296006964657320696E2025750A00536F6D6554
:1012A6007468696E67204661696C656400000000B9
:0C12B60003000000008F01970100000001
:00000001FF
